:020000040800F2
:10000000600C002029020008031C00085B1B00088C
:10001000011C00081F040008212000080000000047
:10002000000000000000000000000000011D0008AA
:100030008906000800000000871C0008031D000856
:10004000430200084302000843020008430200087C
:10005000430200084302000843020008430200086C
:10006000430200084302000843020008430200085C
:10007000430200084302000843020008430200084C
:10008000430200084302000843020008430200083C
:10009000210400084302000843020008430200084C
:1000A000430200084302000843020008430200081C
:1000B000430200084302000843020008430200080C
:1000C00043020008430200084302000843020008FC
:1000D00043020008152000084302000843020008FC
:1000E00043020008430200084302000843020008DC
:1000F00043020008430200084302000843020008CC
:1001000043020008430200084302000843020008BB
:1001100043020008430200084302000843020008AB
:10012000430200084302000843020008430200089B
:10013000430200084302000843020008430200088B
:10014000430200084302000843020008430200087B
:10015000430200084302000843020008430200086B
:10016000430200084302000843020008430200085B
:100170004302000843020008430200080000000098
:10018000430200084302000800F002F800F03CF8C7
:100190000AA090E8000C82448344AAF10107DA45E2
:1001A00001D100F031F8AFF2090EBAE80F0013F0F8
:1001B000010F18BFFB1A43F001031847B81F0000D6
:1001C000D81F0000103A24BF78C878C1FAD8520767
:1001D00024BF30C830C144BF04680C6070470000C1
:1001E0000023002400250026103A28BF78C1FBD840
:1001F000520728BF30C148BF0B6070471FB501F0E0
:10020000A8FF1FBD10B510BD00F0CFF81146FFF7D5
:10021000F5FF01F031FF00F0EDF803B4FFF7F2FF56
:1002200003BC00F0F5F80000094880470948004782
:10023000FEE7FEE7FEE7FEE7FEE7FEE7FEE7FEE796
:10024000FEE7FEE704480549054A064B70470000F3
:100250009D1D00088901000860060020600C002038
:10026000600800206008002053EA020C00F069805A
:100270002DE9F04B4FF00006002B1FBFB3FA83F5BA
:1002800003FA05F424FA05F65E4012BF1643B2FAEB
:1002900082F502FA05F4C5F120051EBF22FA05FC1D
:1002A00044EA0C04203556EA044C4FEA144418BFC3
:1002B000641C4FF000084FF00009904271EB030CF2
:1002C00039D3002919BFB1FA81F701FA07F6B0FA5C
:1002D00080F700FA07F6C7F120071EBF20FA07FCD7
:1002E00046EA0C062037B6FBF4FCA7EB0507103FE7
:1002F00007F01F0BCBF120060CFA0BFB2CFA06F6CD
:1003000044BFB3460026202FA4BF5E464FF0000B2B
:100310005BEA060C08BF4FF0010B19EB0B09ABFBB6
:10032000027C48EB0608C01B06FB02CC0BFB03CC8F
:1003300071EB0C01C1E70B46024641464846BDE859
:10034000F08B13B54FF000004FF00001AFF30080C9
:10035000BDE81C4070474FF0000200B513469446BC
:100360009646203922BFA0E80C50A0E80C50B1F10D
:100370002001BFF4F7AF090728BFA0E80C5048BF21
:100380000CC05DF804EB890028BF40F8042B08BFBF
:10039000704748BF20F8022B11F0804F18BF00F8BB
:1003A000012B7047704770477047754600F02CF876
:1003B000AE4605006946534620F00700854618B052
:1003C00020B5FFF73FFFBDE820404FF000064FF09B
:1003D00000074FF000084FF0000B21F00701AC467A
:1003E000ACE8C009ACE8C009ACE8C009ACE8C00999
:1003F0008D46704710B50446AFF300802046BDE837
:100400001040FFF70ABF000000487047FC050020BD
:1004100001491820ABBEFEE7260002007047FEE748
:10042000014800F0C6BA00009005002010B58AB05F
:10043000002101220446CDE90612039104910E2009
:10044000CDE908200591009101910291694620466D
:1004500000F09EF908B100F018F9204600F098FC71
:1004600008B100F012F90221204600F010F908B19D
:1004700000F00BF90AB0002010BD0000002A02D1E4
:10048000014900F035B870470C00002030B589B044
:100490000825044606950C98AD01029500250495A3
:1004A00005950D0A8DF800508DF80110110A8DF890
:1004B0000210190A8DF804108DF80530010A8DF824
:1004C00006108DF803208DF80700204600F05BFA37
:1004D0000028FAD0054B6A4602A9204600F0E9F848
:1004E000002801D000F0D1F809B030BD080000208C
:1004F00000B5A0F20120082812D200EBC002094882
:1005000000EB021250683228104605DA01F09AFD1D
:100510005068401C506001E000F052F8002000BD1F
:10052000012000BD10010020DFED1C1A9FED1C3AD8
:10053000DFED1C2A9FED1C1ADFED1C3A1C4A9FEDD3
:100540001D4A0021B2EE080AB1EE042AF7EE000AB5
:1005500001EBC10002EB001080ED0E0AC0ED0F1A96
:1005600080ED102A80ED173AC0ED192AC0ED1A0A65
:1005700080ED1B1AC0ED223A037813B1012B03D092
:1005800006E0DFED0D4A01E0DFED0C4AC0ED0C4A5C
:10059000491C80ED0D4A0829DADB7047CDCC4C3E72
:1005A0000000FA450000A0420000000000409C4509
:1005B00010010020000000462CA0994100001042CC
:1005C0000A88DFED2E1A52BA00EE102A90ED0D1AAD
:1005D0002B4BB8EE400A60EE210A80EE810A80EDD6
:1005E000020A4A8852BA12B200EE902AB8EEE01A15
:1005F00080ED031A898849BA09B200EE901AF8EE24
:10060000E00AC0ED040AD0ED070AC0ED060A70EE5C
:10061000600A80ED070A416A10EE902A9A4201DDD5
:10062000491E05E010EE902A164B9A4201D9491C4A
:10063000416200EE901A4FF4B4725143F8EEE00AB2
:1006400060EEA11AD0ED080A30EE602A72EE211A8F
:1006500090ED0C2AC1EE822AC1EE021A01EE101AA8
:10066000C0ED0A2AB8EEC11A31EE000A30EE600A77
:10067000C0ED0B1A80ED050A704700000000B4437E
:1006800000003443000034C3704772B6FEE790F8B0
:100690002020012A07D0022A05D0416A41F4802196
:1006A000416201207047006842690A4342610020AC
:1006B0007047F0B590F820500468A468012D05D06B
:1006C000022D03D0416A41F480215DE014F0406FB7
:1006D00001D1E50055D5C4F30164022C03D9416A68
:1006E00041F4000150E00125A5401D608D684FF4E4
:1006F000C0739DB1CE6835434E6845EAC6050668AD
:1007000003EB0417F5514FF4C275076805EB0415A8
:100710000E697E51097D012905D009E00E88CD685A
:1007200045EA4655EBE701684E5946F480764E514E
:100730001179D579567941EA056195792D0445EA13
:10074000062529434FF4C676056806EB0416A95121
:100750001178D57841EA0561957852782D0445EAFB
:10076000022211434FF4C475026805EB0415515180
:10077000006803EB0411425842F00102425000208D
:10078000F0BD416A41F4001141620120F0BD00005A
:1007900010B590F82020012A07D0022A05D0416A1E
:1007A00041F480214162012010BD3B48D0F8002275
:1007B00042F00102C0F80022D0F8002222F47C525C
:1007C000C0F80022D0F800224B6A42EA0322C0F8A7
:1007D00000220A7D02F01F0301229A40D0F81C3249
:1007E0009343C0F81C32CB69B3B9D0F80C329343B1
:1007F000C0F80C328C894B6864F31F434C6900EBE2
:10080000C404C4F840320C890B6864F31F434C697C
:1008100000EBC404C4F84432CB69012B16D1D0F8E4
:100820000C321343C0F80C320C884B6864F31F433E
:100830004C6900EBC404C4F840320C89CB6864F303
:100840001F434C6900EBC404C4F844328B69002B8D
:10085000D0F804320ED01343C0F804320B69002BD9
:10086000D0F8143208D01343C0F81432096A0129B1
:1008700004D008E09343EFE79343F5E7D0F81C1268
:100880001143C0F81C12D0F8001221F00101C0F889
:100890000012002010BD000000640040704730B519
:1008A00090F82040012C05D0022C03D0416A41F47D
:1008B00080215DE00468002955D02469A40754D044
:1008C0004FF4D874056804EB01142D5915F0040594
:1008D000956005682D594ED0ED08556005682C5976
:1008E00004F00204D4604FF4DA74056804EB0114D8
:1008F0002D5905F00F05156105682D59C5F307251C
:10090000956105682C59240C54614FF4DC7204681D
:1009100002EB0112A4581C700468A458240A5C70ED
:100920000468A458240C9C700468A258120EDA7053
:100930004FF4DE72046802EB0112A4581C710468C3
:10094000A458240A5C710468A458240C9C7104689F
:10095000A258120EDA71006881B1016941F02001DC
:100960000161002030BDE468A8E7416A41F400114C
:100970004162012030BD6D0D1560AFE7C16841F0E7
:100980002001C160EDE70246002092F82010012905
:1009900001D002290CD111688A68520100D50120CA
:1009A0008A68120100D5401C8968C90000D5401C26
:1009B00070472DE9F05F0546006800244669D0F8CD
:1009C00004908768D0F80CB0D0F810A0D0F8188048
:1009D000F10748D0F90714D001218160B80703D589
:1009E000284600F002FA0CE0780702D54FF40064C4
:1009F00007E0380702D54FF4805402E0284600F0A3
:100A0000F3F9F80516D529684FF480708860B805A9
:100A100003D5284600F0EBF90CE0780502D544F444
:100A2000005407E0380502D544F4804402E028462B
:100A300000F0DCF9F80316D529684FF4803088609F
:100A4000B80303D5284600F0D4F90CE0780302D5AA
:100A500044F4004407E0380302D544F4803402E053
:100A6000284600F0C5F9300707D55FEACB6004D50A
:100A70002968102044F40074C86070074FF008071C
:100A800007D55FEA0B7004D52868C760284600F0D8
:100A900059F9B00706D52868C068800702D02846F3
:100AA00000F052F9700607D55FEACA6004D52968DC
:100AB000102044F480640861B00607D55FEA0A702C
:100AC00004D528680761284600F05EF9F00606D5CF
:100AD00028680069800702D0284600F056F9B00364
:100AE00008D55FEAC96005D5296810204860284606
:100AF00000F04CF9F00307D55FEA097004D52868C7
:100B00004760284600F076F9300446D55FEA497020
:100B100040D5F00504D55FEAC87001D044F0010467
:100B2000B00504D55FEA887001D544F00204700571
:100B300004D55FEA487001D544F00404300529D596
:100B400018F0700F26D008F07000402815D006DC91
:100B5000102809D020280AD0302816D10AE05028C1
:100B60000ED0602811D10EE044F008040DE044F0EE
:100B700010040AE044F0200407E044F0400404E0DC
:100B800044F0800401E044F480742868816921F015
:100B900070018161296804204860002C05D0686AD2
:100BA000204368622846FFF779FEBDE8F09F70B5E4
:100BB000040003D094F8200010B104E0012070BDBF
:100BC000204600F081F82068016841F001010160D1
:100BD00000F076FA0546052604E000F071FA401BA5
:100BE0000A2811D820684068C007F6D0206801683C
:100BF00021F00201016000F063FA05460BE000F00D
:100C00005FFA401B0A2806D9606A40F4003060622F
:100C100084F82060D2E7206840688007EFD4207E07
:100C20000128206801683DD021F080010160607ECC
:100C300001282068016838D021F040010160A07EC1
:100C400001282068016833D021F020010160E07E96
:100C50000128206801682ED041F010010160207F3A
:100C600001282068016829D021F008010160607F17
:100C700001282068016824D021F004010160D4E932
:100C800002010843D4E90412114308436168491E74
:100C900008432168C86100206062012084F82000B8
:100CA000002070BD41F08001C0E741F04001C5E780
:100CB00041F02001CAE721F01001CFE741F008011F
:100CC000D4E741F00401D9E710B586B004461421F9
:100CD0006846FFF740FB18492068884229D1174829
:100CE0000021026842F000720260006800F00070AB
:100CF000059012481038026842F001020260006854
:100D000000F0010005904FF4C05000900220CDE9A2
:100D1000010103200390092004906946084800F06F
:100D2000D7F800220121142000F038FA142000F036
:100D300027FA06B010BD00000064004040380240B1
:100D4000000002407047000000B50D4A01688BB0FA
:100D50001268914212D10B4B03AA0021FFF79FFDAD
:100D600008B1FFF792FC07AB0DF10C0C93E80700FC
:100D70008DE807009CE80F00FFF780FB0BB000BD7B
:100D8000900500200C00002070477047704700005D
:100D900070B5044690F82000012804D0606A40F441
:100DA0000020606218E0022084F8200020680168BA
:100DB00021F00101016000F083F905460EE000BF5B
:100DC00000F07EF9401B0A2808D9606A40F4003020
:100DD0006062052084F82000012070BD2068406812
:100DE000C007EDD1606270BD7047704770477047B3
:100DF0007047704770472DE9F0410446876D00F059
:100E00005FF9064694F835000025022806D08020B8
:100E1000606584F834500120BDE8F08120680168E5
:100E200021F0160101602068416921F080014161D3
:100E3000206C08B9A06C20B12068016821F008017D
:100E400001602068016821F0010101600CE000F000
:100E500037F9801B052807D920206065032084F816
:100E6000350084F83450D7E720680068C007EED119
:100E700094F85C103F208840B860012084F8350069
:100E800084F834500020C7E790F83510022903D0C9
:100E90008021416501207047052180F835100068E8
:100EA000016821F0010101600020704770B504461F
:100EB00000F006F90546601C02D00448007804449E
:100EC00000F0FEF8401BA042FAD370BD14000020D1
:100ED0002DE9F84FDFF8BCA10022012503264FF0D1
:100EE0000F090AF1040BAAF1040E00BF0B6805FA02
:100EF00002F42340A34270D10F7907F00307012FBA
:100F000001D0022F16D187684FEA420806FA08FC82
:100F100027EA0C07D1F80CC00CFA08FC4CEA070CC5
:100F2000C0F808C04768A7430C79C4F30014944084
:100F30003C4344600C79E443A4070AD0C4684FEAF8
:100F4000420C06FA0CF7BC438F6807FA0CF72743EC
:100F5000C7600C7904F00304022C12D1D40800EB12
:100F6000840CDCF820405707FF0E09FA07F824EA42
:100F70000804D1F8108008FA07F848EA0408CCF809
:100F8000208004684FEA420C06FA0CF7BC430F7944
:100F900007F0030707FA0CF7274307604C6814F4BF
:100FA000403F70D03C4C276847F480472760246856
:100FB00022F0030704F480440094384C07EB040C3F
:100FC000DCF8084897074FEA177809FA08F7BC4396
:100FD000334FB84202D1002724E054E0314FB842E9
:100FE00001D101271EE0304FB84201D1022719E09C
:100FF0002E4FB84201D1032714E02D4FB84201D142
:1010000004270FE02B4FB84201D105270AE02A4FF1
:10101000B84201D1062705E0284FB84201D1072781
:1010200000E0082707FA08F72743CCF80878DAF831
:1010300000405746D1F804C09C435FEACC2C00D551
:101040001C433C60DBF800405F46D1F804C09C4381
:101050005FEA8C2C00D51C433C60DEF800407746EC
:10106000D1F804C09C435FEA8C3C00D51C433C6033
:10107000084F083F3C68D1F804C09C435FEACC3C71
:1010800000D51C433C60521C102AFFF42FAFBDE872
:10109000F88F0000083C0140443802400030014015
:1010A000000002400004024000080240000C024020
:1010B000001002400014024000180240001C0240D0
:1010C00001488068704700001400002002488168D1
:1010D0000278114481607047140000200B4810B55D
:1010E000016841F400710160016841F480610160B0
:1010F000016841F480710160032000F06FF80F2057
:1011000000F006F800F024F8002010BD003C02407A
:1011100070B50D4D04464FF47A712878B1FBF0F0AC
:101120000A490968B1FBF0F000F00AFB48B9102C3D
:1011300007D200222146501E00F030F800206C60DB
:1011400070BD012070BD00001400002020000020B0
:101150000A4808B5016841F480410160006800F464
:10116000804000900548001F016841F080510160F7
:10117000006800F08050009008BD00004438024034
:10118000002809DB00F01F02012191404009800086
:1011900000F1E020C0F8001170470000F0B40E4BE1
:1011A0001B680C46C3F30223C3F10705042D00D9C5
:1011B0000425191D072901D2002300E0DB1E0126AA
:1011C00006FA05F1491E214099409E40761E1640C0
:1011D0003143F0BC00F025BF0CED00E0064900F003
:1011E000070208684FF6FF03184040EA0220034A4E
:1011F00010430860704700000CED00E00000FA05A5
:101200002DE9F0470E46050065D0DFF81481D8F8C7
:101210000000F7B200F00700B04207D288F8007073
:10122000D8F8000000F00700B04254D128683D4CC7
:10123000810712D5400703D5206840F4E0502060B4
:101240002878000703D5206840F4604020602068BB
:10125000A96820F0F000084320602878C0072DD04E
:10126000304968680839012812D0022813D00328B1
:1012700011D00968890700292DDA216821F00301BE
:1012800001432160FFF71CFF814641F2883A0EE0DE
:1012900009688903EFE709688901ECE7FFF710FFA8
:1012A000A0EB0901514502D90320BDE8F087206871
:1012B000696800F00C00B0EB810FEFD1D8F8001096
:1012C000404601F00701B14207D90770006800F0FD
:1012D0000700B04201D00120E7E72878400705D594
:1012E0002068E96820F4E05008432060287800076F
:1012F00006D52068296920F4604040EAC1002060DA
:1013000000F038F82168084AC1F30311515CC84065
:101310000649086006480068FFF7FAFE0020C4E7A7
:10132000003C0240083802405C21000820000020F8
:10133000180000200448054900680968044AC1F300
:101340008221515CC84070472000002008380240CC
:101350006C2100080448054900680968044AC1F383
:101360004231515CC84070472000002008380240DC
:101370006C210008154810B5006810F00C021448E4
:1013800013D04110042A0FD0082A0ED10F4C241F6D
:101390002268236802F03F025B0207D52068C0F391
:1013A0008810A0FB010106E0084610BD2168C1F3CA
:1013B0008811A1FB00010023FEF756FF2168C1F34D
:1013C0000141491C4900B0FBF1F010BD0838024052
:1013D0000024F4002DE9F84F04006ED02078DFF8E7
:1013E0004C93C007A9F104054AD009F10400016833
:1013F000C1F38101012908D00068C0F381000228EF
:101400000AD1D9F80000400206D52868800337D5F4
:1014100060680028E1D033E06068B0F5803F10D00C
:10142000B0F5A02F286810D020F4803028602868FC
:1014300020F4802028606068A8B1FFF741FE0646CE
:101440000DE0286840F48030F4E740F48020286004
:10145000F7E700BFFFF734FE801B642873D82868C5
:101460008003F7D50CE0FFF72BFE064605E000BF32
:10147000FFF726FE801B6428F0D828688003F7D485
:101480002078DFF8AC8280074FF0000A3ED5A748ED
:10149000001D016811F00C0F08D00068C0F3810036
:1014A00002280BD1D9F80000400207D42868800731
:1014B00016D5E068012800D112E033E1E068B8B148
:1014C0000120C8F80000FFF7FBFD064605E000BF5D
:1014D000FFF7F6FD801B0228C0D828688007F7D5E3
:1014E0002868216920F0F80040EAC10028600DE07A
:1014F000C8F800A0FFF7E4FD064604E0FFF7E0FDB2
:10150000801B02281FD828688007F7D4207800079E
:1015100022D5864F87486169703771B1012101601A
:10152000FFF7CEFD064604E0FFF7CAFD801B022848
:1015300009D838688007F7D50EE0C0F800A0FFF79B
:10154000BFFD064605E082E0FFF7BAFD801B0228DA
:101550007DD838688007F7D42078400768D5DFF851
:10156000CCB100270BF13C0BDBF80000C0000BD422
:10157000DBF8001041F08051CBF80010DBF80000E0
:10158000012700F0805000906B4E3068C00510D4E9
:10159000306840F480703060FFF792FD009005E005
:1015A000FFF78EFD0099401A022850D83068C00518
:1015B000F6D55E4EA0686C3601280FD0052830683D
:1015C00010D020F001003060306820F0040030605E
:1015D000A068B8B1FFF774FD00900FE0306840F0EC
:1015E0000100F4E740F004003060F7E7FFF768FD22
:1015F0000099411A41F28830814266D830688007EC
:10160000F4D50EE0FFF75CFD009007E0FFF758FD12
:101610000099411A41F28830814256D830688007DB
:10162000F4D42FB1DBF8001021F08051CBF800107A
:10163000A069C8B33D49091D0968C1F381010229A8
:101640004AD00228504607D0C8F8600000E03CE0CD
:10165000FFF736FD04463BE04746C8F86000FFF759
:101660002FFD064605E000BFFFF72AFD801B02287C
:101670002BD828688001F7D4D4E907010843A16A70
:101680002E4A490802EB0141626A41EA821108438D
:1016900094F82C1040EA0161C9F800100120386666
:1016A000FFF70EFD044606E03EE000BFFFF708FD31
:1016B000001B022809D828688001F7D534E000BF54
:1016C000FFF7FEFC001B022802D90320BDE8F88FBB
:1016D00028688001F4D427E00128F7D0D9F8000069
:1016E000E26900F4800191421CD1226A00F03F01BE
:1016F000914217D147F6C071626A0140B1EB821F77
:1017000010D1A26A4FF0FF3300F4403103EB5202D4
:10171000B1EB024F06D194F82C1000F07060B0EBE2
:10172000016F01D00120D1E70020CFE7043802404B
:1017300000004742800E4742007000400000FFFF5B
:1017400010B5401EB0F1807F01D3012010BD4FF0D5
:10175000E02460610F21601700F063FC0020A061AD
:1017600007202061002010BD70477047F8B5016860
:1017700004460868CA684B6910F00F0F4FF0000567
:1017800059D003F0010602F49077374365D0C107C2
:1017900005D0D10503D5216C41F001012164410739
:1017A00005D5D90703D0216C41F0020121648107DE
:1017B00005D5D90703D0216C41F00401216401074C
:1017C00007D502F02001314303D0216C41F008011C
:1017D0002164216C00293AD0800604D5900602D5F8
:1017E000204600F012FB20684069216CC0F3801095
:1017F000090700D460B3204600F0E0FA2068406991
:10180000400621D52068143050E8001F21F0400127
:1018100040E80012002AF5D1A06BA8B16C4901651F
:10182000A06BFFF731FB002811D0A06B016D01B058
:10183000BDE8F040084783060FD593060DD5204636
:10184000BDE8F84000F0E1BA2046FFF78EFFF8BD92
:101850002046FFF78AFF2564F8BD266B2023012E62
:1018600079D1C60677D5D60675D508684868009040
:101870004869400640D5A16B086840680004000C28
:10188000EAD0A28D8242E7D9E085C869B0F5807FB1
:101890002DD020680C3050E8001F21F4807140E802
:1018A0000012002AF5D12068143050E8001F21F002
:1018B000010140E80012002AF5D12068143050E8F8
:1018C000001F21F0400140E80012002AF5D184F801
:1018D0003E30256320680C3050E8001F21F01001D5
:1018E00040E80012002AF5D1A06BFFF784FAA08D22
:1018F000E18D401A81B229E0A08DE18D401A81B2BC
:10190000E08D0028A8D00029A6D020680C3050E82F
:10191000002F22F4907240E80026002EF5D12068B6
:10192000143050E8002F22F0010240E80026002E7B
:10193000F5D184F83E30256320680C3050E8002F44
:1019400022F0100240E80023002BF5D12046FFF7DB
:101950000BFFF8BDFFE705062BD5150629D594F832
:101960003D002128F5D1A068B0F5805F01D1206944
:10197000B0B1206A411C2162216800784860E08C87
:10198000401E0004000CE084E3D12068C16821F00F
:101990008001C1602068C16841F04001C160D8E7A2
:1019A000206A0088C0F308004860206A801C20621A
:1019B000E5E74006CDD55006CBD5CA68204622F0D3
:1019C0004002CA6084F83D3000F0C6F8C1E700006C
:1019D000AD1D000870B5040004D094F83D0000254A
:1019E00010B106E0012070BD84F83C50204600F0A4
:1019F00023F8242084F83D002068C16821F40051B8
:101A0000C160204600F062FA2068016921F490412B
:101A100001612068416921F02A0141612068C168A3
:101A200041F40051C1602564202084F83D0084F811
:101A30003E00002070BD000010B586B004461421A1
:101A40006846FEF788FC18492068884229D1174863
:101A50000021026842F010020260006800F01000ED
:101A6000059012481438026842F0010202600068D2
:101A700000F0010005904FF4C06000900220CDE915
:101A80000101032003900720049069460848FFF7EE
:101A90001FFA002211462520FFF780FB2520FFF7C3
:101AA0006FFB06B010BD000000100140443802403A
:101AB0000000024090F83E30202B0ED159B152B1B7
:101AC00090F83C30012B08D0012380F83C300023F3
:101AD000036300F081BA01207047022070470000C4
:101AE000F0B40068184988422BD118480023184CDC
:101AF000418802784D1CADB2042906D2AA2A01D031
:101B0000438018E06254458015E0104EC229B68823
:101B100005D26254458006EB020181800BE00AD1B8
:101B2000F1B284F8C220914203D1094A0121C432A2
:101B3000118043808380F0BC012204490548FFF7EF
:101B4000B9BFF0BC70470000001001400000002049
:101B500024000020B80500207047FEE70E4810B5AD
:101B60000C4901600621416000214FF48022816010
:101B7000C0E903124161017641768176C176017731
:101B80004177FFF714F8002803D0BDE81040FEF7B6
:101B90007CBD10BD0064004090050020094808B5D8
:101BA000016841F080010160016801F0800100914D
:101BB000016841F001010160006800F0010000903F
:101BC00008BD0000303802400C4810B50A490160D9
:101BD0004FF461314160002181600C22C160C0E995
:101BE00004128161C161FFF7F5FE002803D0BDE852
:101BF0001040FEF74ABD10BD00100140B80500209E
:101C0000FEE7FEE790ED040AD0ED030AB0EE002AED
:101C100030EE600A80ED050AD0ED070AD0ED001A1B
:101C200030EE601A21EE211AD0ED011A01EE801A71
:101C3000F0EE401A40EEC21A90ED062A71EE821ABA
:101C400090ED022A02EE211AD0ED081A31EE211A87
:101C500080ED081AC0ED060A80ED070A90ED090A2A
:101C6000B4EEC01AF1EE10FA01DD80ED080AD0EDF5
:101C7000080AB1EE400AF4EEC00AF1EE10FA01D201
:101C800080ED080A7047704710B503784278934298
:101C900033D183789A4230D1C27893422DD1AA2A87
:101CA0002BD14279022A28D100230422845C521CC1
:101CB00092B22344C22AF9D390F8C220DBB29A42EE
:101CC0001BD100229FED0D0AC2EB02130344521CEC
:101CD0009C7ADB7A92B204EB03231BB200EE903ABB
:101CE0000B800C2AF8EEE00A30EE800AECD3F2EE1C
:101CF000080A80EE201A81ED011A10BD00000000D4
:101D00007047FFF7E3B9000030B593B03021684663
:101D1000FEF721FB14210CA8FEF71DFB1D48002532
:101D2000016841F080510160006800F0805011901E
:101D30001948016841F4804101600068022400F400
:101D40008040119001200090000401908001CDE9B5
:101D5000064008AA0420A82182E813000B906846D8
:101D6000FFF738FB08B172B6FEE70CA90F2081E837
:101D700031004FF4A0500F904FF480501090052187
:101D80000CA8FFF73DFA002801D072B6FEE713B0A9
:101D900030BD000040380240007000400248016839
:101DA00041F470010160704788ED00E010B5806B70
:101DB0000021C185C184FFF7D8FC10BD01680C313A
:101DC00051E8002F22F4907241E80023002BF5D156
:101DD0000168143151E8002F22F0010241E800238C
:101DE000002BF5D1016B012909D101680C3151E8B3
:101DF000002F22F0100241E80023002BF5D1202112
:101E000080F83E1000210163704708B590F83E103D
:101E1000222901D0022008BD82684FF480539A42E3
:101E200001D1016921B1816A9A421BD04AB10AE00D
:101E30000268816A5268C2F308020A80816A891CBA
:101E400008E0026972B10268526802F07F020A700B
:101E5000816A491C8162C18D491E0904090CC18532
:101E600003D019E002685268F1E70168CA6822F0FD
:101E70002002CA600168CA6822F48072CA600168E0
:101E80004A6922F001024A61202180F83E10016B6C
:101E9000012903D0FFF724FE002008BD00210163C3
:101EA00001680C3151E8002F22F0100241E80023B4
:101EB000002BF5D101680A68D20602D50A68496884
:101EC0000091818DFFF750FCE6E7000070B50446F5
:101ED00000680169E26821F4405111430161216900
:101EE000A068E26908436169114308432168CA6830
:101EF00049F20C639A430243CA6020684169A269AF
:101F000021F440711143416131492068884202D077
:101F10003049884202D1FFF71DFA01E0FFF70AFAC3
:101F2000E2690023192164253226B2F5004F626868
:101F300028D0A0FB0101930F9200FEF795F901460E
:101F4000B0FBF5F06FF01802504301EB800006EB98
:101F50000010B0FBF5F000F0F002B1FBF5F002EB81
:101F60000012B1FBF5F06FF01803584301EB80004D
:101F700006EB0010B0FBF5F000F00F0021681044F4
:101F8000886070BDA0FB010192185B41FEF76CF9FF
:101F90000146B0FBF5F00201B1FBF5F06FF018035C
:101FA000584301EB800006EBC000B0FBF5F000F0F9
:101FB000F80002EB4002B1FBF5F0584301EB800062
:101FC00006EBC000B0FBF5F000F00700D6E700001C
:101FD000001001400014014081628285C285002109
:101FE0000164222280F83E2080F83C10016921B172
:101FF0000168CA6842F48072CA6001684A6942F0A6
:1020000001024A610068C16841F02001C1600020FE
:10201000704700000148FFF7A9BB0000B805002089
:10202000FEE70907090E002804DB00F1E02080F834
:102030000014704700F00F0000F1E02080F8141D3C
:10204000704700000988DFED0B0A49BA00EE101A4C
:1020500090ED0D1AB8EE400A60EE200A80EE810A7B
:1020600080ED020A80ED060A80ED070A80ED080A7D
:10207000704700000000B4432DED028B82B0FFF7E3
:102080002DF8FFF741FEFFF789FDFFF767FDFFF72A
:102090009BFD01221B491C48FFF70CFD4FF4FA7011
:1020A000FEF704FF1948FEF7C1F9194C012084F826
:1020B000B001FEF739FA9FED178A04F5D875164975
:1020C0001648FFF7E1FD2846B0EE480A00F028F870
:1020D000D4ED820A0023BDEEE00A10EE100AB1EE44
:1020E000600AFDEEC00A00B2009010EE900A02B243
:1020F00010EE900A01B20548FEF7C8F90220FEF77B
:10210000D5FEDCE700000020B80500209005002087
:102110001001002000003443F400002024000020BF
:1021200000B580ED1D0A90ED0A0A014680ED1C0AFB
:102130006430FFF767FD91ED210A01F1380081ED70
:10214000120A91ED030A81ED110A5DF804EBFFF725
:1021500059BD4FF04070E1EE100A704700000000DA
:102160000000000001020304060708090000000047
:102170000102030494210008000000202400000054
:10218000C4010008B8210008240000203C0C000015
:10219000E001000800000000000000000000000056
:1021A000000000000000000001000000100000001E
:0821B000000000000024F4000F
:040000050800018965
:00000001FF
